:207800000C942A3CFFFFFFFFFFFFFFFFFFFFFFFFFFFFFFFFFFFFFFFFFFFFFFFFFFFFFFFF7E
:20782000FFFFFFFFFFFFFFFFFFFFFFFFFFFFFFFFFFFFFFFFFFFFFFFFFFFFFFFFFFFFFFFF68
:20784000FFFFFFFFFFFFFFFFFFFFFFFFFFFFFFFFFFFFFFFF01E005BF02E005BFCFE5D8E085
:20786000CDBFDEBFCE51D0400AEA08830024E0E6F0E010E0E43EF10711F00192FBCF00838C
:20788000E4E5F8E7A0E6B0E018E700E00BBFE435F10721F0C89531960D92F9CF0E94EA3C0C
:2078A000FFCFAA92BA9277D0A02E75D03A2C202E309261002092600027E030E081010E94F4
:2078C0005D3D1093630000936200B990A99008950E94523D219700240882CC244427552786
:2078E00015C059D0A02E57D0E02E2E2C3324322C22246A2D7727620D731D2A2C200EC20CAC
:207900009A018B010E94273D4E5F5F4F4038E0E05E0738F340D0E02EC01611F0002738C003
:2079200023E000916200109163000E94213D25E000916200109163000E94213D0E943C3D36
:20794000442755271BC022270091620010916300040F151F0E942F3D7801B701CB018070E3
:207960001C01232C3324CB019070820D931D28803324280E391E28824E5F5F4F4038E0E070
:207980005E0708F30880C01411F0002701C001E021960C94473D0027112712C0A8950E5FAB
:2079A0001F4F015010408AEF9FEFA0E0B0E018014424552482159305A405B5050CF402C053
:2079C0005F9BECCF0CB1089501C0A8955D9BFDCF0CB9089581E082BB80E189B988E18AB987
:2079E00086E880BDD8DF0EE3EFDFD5DF0C3311F503E5EADF05E4E8DF0EE6E6DF03E6E4DFA7
:207A000002E3E2DFC8DF01E2DFDF13C0A89549DF80916000909161008F3FEFEF9E0709F4FF
:207A200009C056DF002319F001E2CEDF02C000E4CBDFECCF81E085BF222425BE0C94000013
:207A4000089520D0F80120935700E89508951AD0F901080131E030935700E8950895F80151
:207A600020FD20935700059114910895002E19E010935700E895089505D0B1E1B0935700CB
:207A8000E8950895B0915700B0FDFCCF0895A990B990C990D990E990F9904991599169911B
:207AA000799108957A936A935A934A93FA92EA92DA92CA92BA92AA920895222321F0000FF1
:087AC000111F2A95FACF089569
:00000001FF
